:030000000202B841
:0C02B800787FE4F6D8FD75811302025532
:10023A0078696E677869616E67726F6E67004144AC
:0B024A003D0056696E3D002E0056007E
:1002550012027F12012A12020412000E7F647E0030
:050265001201E380F12D
:10027F00D2AF758902758CD8758AD8D28CD2A9C2A3
:04028F0090C2922265
:10000E00E51075F064A485F011F512750B02750CF0
:10001E003AE4FB7D01FF120179750B02750C48E481
:10002E00FBFD7F01120179E51075F064842430FB2D
:10003E007D037F011201BFE51075F00A847D041265
:10004E0001B4E5107D051201B4750B02750C4CE47C
:10005E00FB7D077F01120179E51075F033842430A2
:10006E00FB7D0B7F011201BF750B02750C51E4FB7A
:10007E007D0C7F01120179AE11AF127C007D33121F
:10008E0000D57C007D0A1200D57C007D0A1200D5B9
:10009E00ED2430FB7D0D7F011201BFAE11AF127C3E
:1000AE00007D331200D57C007D0A1200D5ED243080
:1000BE00FB7D0E7F011201BF750B02750C53E4FB25
:0700CE007D0F7F01020179A3
:10020400C2907F0A1202A6D2907F0A1202A6C2905E
:0B0214003091FDD29285B010C2922202
:03000B00020003ED
:03000300B2933283
:060179008F088D098B0ABE
:10017F00E4F50D53080153090FE50C250DF582E445
:10018F00350BF583E493FB601BE509D3940F5014F3
:10019F00AD09AF081201BF050D0509AF0A7E0012A8
:0401AF0001E380D513
:0101B3002229
:10012A00E4F580FDFC7F381202231201DFE4FDFCB6
:10013A007F381202231201DFE4FDFC7F381202230A
:10014A001201DF7F3812021F7F0812021F7D017C15
:10015A00007F011202237D017C007F061202237DAB
:0F016A00017C007F0C1202237F647E000201E300
:100293008F0F12026A850F80D2A4C2A3C2A2C2A288
:0302A300D2A222C2
:04021F007D017C00E1
:100223008F0FED4C600312026A850F80C2A4C2A334
:07023300C2A2C2A2D2A22266
:10026A007580FFC2A4D2A3C2A2C2A2D2A2E58020F4
:05027A00E7FBAF80224C
:0B01B40075F00A84E5F02430FB7F01A9
:1001BF008B0EAE0553070153060FEF600343064046
:1001CF00430680AF06E4FDFC120223AF0E0202933A
:0401DF007F057E001A
:1001E300E4FDFCC3ED9FEC9E50167B467A00EB1BAF
:1001F3008A8370011A458370F50DBD00010C80E3FD
:0102030022D8
:1002A600AD071FED600B7E7DEED3940040F21E80FD
:0102B600F750
:0102B7002224
:1000D500BC000BBE0029EF8DF084FFADF022E4CC0F
:1000E500F875F008EF2FFFEE33FEEC33FCEE9DECD8
:1000F500984005FCEE9DFE0FD5F0E9E4CEFD22ED1E
:10010500F8F5F0EE8420D21CFEADF075F008EF2F67
:10011500FFED33FD4007985006D5F0F222C398FD58
:050125000FD5F0EA22F5
:00000001FF
